{
  "contractName": "Lead",
  "abi": [
    {
      "constant": true,
      "inputs": [],
      "name": "isDisputed",
      "outputs": [
        {
          "name": "",
          "type": "bool"
        }
      ],
      "payable": false,
      "stateMutability": "view",
      "type": "function"
    },
    {
      "constant": true,
      "inputs": [],
      "name": "seller",
      "outputs": [
        {
          "name": "",
          "type": "address"
        }
      ],
      "payable": false,
      "stateMutability": "view",
      "type": "function"
    },
    {
      "constant": false,
      "inputs": [],
      "name": "settle",
      "outputs": [],
      "payable": false,
      "stateMutability": "nonpayable",
      "type": "function"
    },
    {
      "constant": false,
      "inputs": [
        {
          "name": "challenge",
          "type": "string"
        }
      ],
      "name": "dispute",
      "outputs": [],
      "payable": false,
      "stateMutability": "nonpayable",
      "type": "function"
    },
    {
      "constant": true,
      "inputs": [],
      "name": "isSettled",
      "outputs": [
        {
          "name": "",
          "type": "bool"
        }
      ],
      "payable": false,
      "stateMutability": "view",
      "type": "function"
    },
    {
      "constant": true,
      "inputs": [],
      "name": "expiration",
      "outputs": [
        {
          "name": "",
          "type": "uint256"
        }
      ],
      "payable": false,
      "stateMutability": "view",
      "type": "function"
    },
    {
      "constant": true,
      "inputs": [],
      "name": "data",
      "outputs": [
        {
          "name": "",
          "type": "string"
        }
      ],
      "payable": false,
      "stateMutability": "view",
      "type": "function"
    },
    {
      "constant": false,
      "inputs": [],
      "name": "agentWithdraw",
      "outputs": [],
      "payable": false,
      "stateMutability": "nonpayable",
      "type": "function"
    },
    {
      "constant": true,
      "inputs": [],
      "name": "agentShare",
      "outputs": [
        {
          "name": "",
          "type": "uint256"
        }
      ],
      "payable": false,
      "stateMutability": "view",
      "type": "function"
    },
    {
      "constant": false,
      "inputs": [],
      "name": "sellerWithDraw",
      "outputs": [],
      "payable": false,
      "stateMutability": "nonpayable",
      "type": "function"
    },
    {
      "constant": true,
      "inputs": [],
      "name": "agent",
      "outputs": [
        {
          "name": "",
          "type": "address"
        }
      ],
      "payable": false,
      "stateMutability": "view",
      "type": "function"
    },
    {
      "inputs": [
        {
          "name": "_agentShare",
          "type": "uint256"
        },
        {
          "name": "_data",
          "type": "string"
        },
        {
          "name": "_seller",
          "type": "address"
        },
        {
          "name": "_expiration",
          "type": "uint256"
        }
      ],
      "payable": false,
      "stateMutability": "nonpayable",
      "type": "constructor"
    }
  ],
  "bytecode": "0x6060604052341561000f57600080fd5b604051610905380380610905833981016040528080519060200190919080518201919060200180519060200190919080519060200190919050508360048190555082600090805190602001906100669291906100b8565b5081600360006101000a81548173ffffffffffffffffffffffffffffffffffffffff021916908373ffffffffffffffffffffffffffffffffffffffff160217905550806001819055505050505061015d565b828054600181600116156101000203166002900490600052602060002090601f016020900481019282601f106100f957805160ff1916838001178555610127565b82800160010185558215610127579182015b8281111561012657825182559160200191906001019061010b565b5b5090506101349190610138565b5090565b61015a91905b8082111561015657600081600090555060010161013e565b5090565b90565b6107998061016c6000396000f3006060604052600436106100af576000357c0100000000000000000000000000000000000000000000000000000000900463ffffffff1680630335729e146100b457806308551a53146100e157806311da60b4146101365780632fb2c8b11461014b5780633270bb5b146101a85780634665096d146101d557806373d4a13a146101fe578063b27138471461028c578063cef15834146102a1578063ed72a4f9146102ca578063f5ff5c76146102df575b600080fd5b34156100bf57600080fd5b6100c7610334565b604051808215151515815260200191505060405180910390f35b34156100ec57600080fd5b6100f4610347565b604051808273ffffffffffffffffffffffffffffffffffffffff1673ffffffffffffffffffffffffffffffffffffffff16815260200191505060405180910390f35b341561014157600080fd5b61014961036d565b005b341561015657600080fd5b6101a6600480803590602001908201803590602001908080601f01602080910402602001604051908101604052809392919081815260200183838082843782019150505050505091905050610416565b005b34156101b357600080fd5b6101bb610520565b604051808215151515815260200191505060405180910390f35b34156101e057600080fd5b6101e8610533565b6040518082815260200191505060405180910390f35b341561020957600080fd5b610211610539565b6040518080602001828103825283818151815260200191508051906020019080838360005b83811015610251578082015181840152602081019050610236565b50505050905090810190601f16801561027e5780820380516001836020036101000a031916815260200191505b509250505060405180910390f35b341561029757600080fd5b61029f6105d7565b005b34156102ac57600080fd5b6102b4610684565b6040518082815260200191505060405180910390f35b34156102d557600080fd5b6102dd61068a565b005b34156102ea57600080fd5b6102f2610747565b604051808273ffffffffffffffffffffffffffffffffffffffff1673ffffffffffffffffffffffffffffffffffffffff16815260200191505060405180910390f35b600360159054906101000a900460ff1681565b600360009054906101000a900473ffffffffffffffffffffffffffffffffffffffff1681565b6001600360146101000a81548160ff021916908315150217905550600360009054906101000a900473ffffffffffffffffffffffffffffffffffffffff1673ffffffffffffffffffffffffffffffffffffffff166108fc60646004548115156103d257fe5b046001033073ffffffffffffffffffffffffffffffffffffffff1631029081150290604051600060405180830381858888f19350505050151561041457600080fd5b565b73__leadUtils_____________________________63c3d2d548826040518263ffffffff167c01000000000000000000000000000000000000000000000000000000000281526004018080602001828103825283818151815260200191508051906020019080838360005b8381101561049c578082015181840152602081019050610481565b50505050905090810190601f1680156104c95780820380516001836020036101000a031916815260200191505b509250505060206040518083038186803b15156104e557600080fd5b5af415156104f257600080fd5b505050604051805190501561051d576001600360156101000a81548160ff0219169083151502179055505b50565b600360149054906101000a900460ff1681565b60015481565b60008054600181600116156101000203166002900480601f0160208091040260200160405190810160405280929190818152602001828054600181600116156101000203166002900480156105cf5780601f106105a4576101008083540402835291602001916105cf565b820191906000526020600020905b8154815290600101906020018083116105b257829003601f168201915b505050505081565b600360159054906101000a900460ff16806105fe5750600360149054906101000a900460ff165b151561060957600080fd5b600260009054906101000a900473ffffffffffffffffffffffffffffffffffffffff1673ffffffffffffffffffffffffffffffffffffffff166108fc3073ffffffffffffffffffffffffffffffffffffffff16319081150290604051600060405180830381858888f19350505050151561068257600080fd5b565b60045481565b600360159054906101000a900460ff161580156106b45750600360149054906101000a900460ff16155b80156106c1575060015442115b15156106cc57600080fd5b600360009054906101000a900473ffffffffffffffffffffffffffffffffffffffff1673ffffffffffffffffffffffffffffffffffffffff166108fc3073ffffffffffffffffffffffffffffffffffffffff16319081150290604051600060405180830381858888f19350505050151561074557600080fd5b565b600260009054906101000a900473ffffffffffffffffffffffffffffffffffffffff16815600a165627a7a723058209fb3e22d2355f406a980ab8135abd417e4adcec2f2521482c9c1b2dc8e93a2300029",
  "source": "pragma solidity ^ 0.4.18;\nimport \"./leadUtils.sol\";\n// import \"./strings.sol\";\n// library leadUtils {\n//     using strings for *;\n//     function checkChallenge(string challenge) public pure returns(bool) {\n//         var s = challenge.toSlice();\n//         var delim = \".\".toSlice();\n//         var parts = new string[](s.count(delim) + 1);\n//         for(uint i = 0; i < parts.length; i++) {\n//             parts[i] = s.split(delim).toString();\n//         }\n//         return (keccak256(parts[i]) == keccak256(\"dispute\"));//TODO: add RSAchecksig   \n//     }\n// }\ncontract Lead {\n    // using leadUtils for *;\n    string public data;\n    uint public expiration;\n    address public agent;\n    address public seller;\n    bool public isSettled;\n    bool public isDisputed;\n    uint public agentShare;\n    function Lead(uint _agentShare, string _data, address _seller,uint _expiration) public{\n        agentShare = _agentShare;\n        data = _data;\n        seller = _seller;\n        expiration = _expiration;\n    }\n    function settle() public{\n        isSettled = true;\n        seller.transfer(address(this).balance * (1 - agentShare/100));\n    }\n    function agentWithdraw() public\n    {\n        require(isDisputed || isSettled);\n        agent.transfer(address(this).balance);\n    }\n    function sellerWithDraw() public\n    {\n        require(!isDisputed && !isSettled && now > expiration);\n        seller.transfer(address(this).balance);\n    }\n    function dispute(string challenge) public\n    {\n        if(leadUtils.checkChallenge(challenge)) isDisputed = true;\n    }\n} \n",
  "sourcePath": "/Users/vladimirpopov/Blockchain/P2Partner/contracts/lead.sol",
  "compiler": {
    "name": "solc",
    "version": "0.4.21+commit.dfe3193c.Emscripten.clang"
  },
  "schemaVersion": "1.0.1",
  "updatedAt": "2018-04-01T10:06:50.421Z"
}