{
  "contractName": "leadUtils",
  "abi": [
    {
      "constant": true,
      "inputs": [
        {
          "name": "challenge",
          "type": "string"
        }
      ],
      "name": "checkChallenge",
      "outputs": [
        {
          "name": "",
          "type": "bool"
        }
      ],
      "payable": false,
      "stateMutability": "pure",
      "type": "function"
    }
  ],
  "bytecode": "0x61060d610030600b82828239805160001a6073146000811461002057610022565bfe5b5030600052607381538281f3007300000000000000000000000000000000000000003014606060405260043610610058576000357c0100000000000000000000000000000000000000000000000000000000900463ffffffff168063c3d2d5481461005d575b600080fd5b6100ad600480803590602001908201803590602001908080601f016020809104026020016040519081016040528093929190818152602001838380828437820191505050505050919050506100c7565b604051808215151515815260200191505060405180910390f35b60006100d161058b565b6100d961058b565b6100e16105a5565b60006100ec8661029f565b935061012c6040805190810160405280600181526020017f2e0000000000000000000000000000000000000000000000000000000000000081525061029f565b9250600161014384866102cd90919063ffffffff16565b016040518059106101515750595b90808252806020026020018201604052801561018757816020015b6101746105b9565b81526020019060019003908161016c5790505b509150600090505b81518110156101db576101b36101ae848661034490919063ffffffff16565b61035e565b82828151811015156101c157fe5b90602001906020020181905250808060010191505061018f565b60405180807f64697370757465000000000000000000000000000000000000000000000000008152506007019050604051809103902060001916828281518110151561022357fe5b906020019060200201516040518082805190602001908083835b602083101515610262578051825260208201915060208101905060208303925061023d565b6001836020036101000a03801982511681845116808217855250505050505090500191505060405180910390206000191614945050505050919050565b6102a761058b565b600060208301905060408051908101604052808451815260200182815250915050919050565b60008082600001516102f185600001518660200151866000015187602001516103bc565b0190505b83600001518460200151018111151561033d57818060010192505082600001516103358560200151830386600001510383866000015187602001516103bc565b0190506102f5565b5092915050565b61034c61058b565b6103578383836104a2565b5092915050565b6103666105cd565b61036e6105cd565b600083600001516040518059106103825750595b9080825280601f01601f191660200182016040525091506020820190506103b28185602001518660000151610540565b8192505050919050565b60008060008060008060008060008b97508c8b11151561048c5760208b1115156104465760018b60200360080260020a03196001029550858a511694508a8d8d010393508588511692505b8460001916836000191614151561043e57838810151561042b578c8c019850610492565b8780600101985050858851169250610407565b879850610492565b8a8a209150600096505b8a8d038711151561048b578a8820905080600019168260001916141561047857879850610492565b6001880197508680600101975050610450565b5b8c8c0198505b5050505050505050949350505050565b6104aa61058b565b60006104c885600001518660200151866000015187602001516103bc565b9050846020015183602001818152505084602001518103836000018181525050846000015185602001510181141561050a576000856000018181525050610535565b8360000151836000015101856000018181510391508181525050836000015181018560200181815250505b829150509392505050565b60005b6020821015156105685782518452602084019350602083019250602082039150610543565b6001826020036101000a0390508019835116818551168181178652505050505050565b604080519081016040528060008152602001600081525090565b602060405190810160405280600081525090565b602060405190810160405280600081525090565b6020604051908101604052806000815250905600a165627a7a7230582059406181e84323465ff8498940209236cac6ac854e2b60cf45f7b34c6e3aabfd0029",
  "source": "pragma solidity ^ 0.4.18;\nimport \"./strings.sol\";\nlibrary leadUtils {\n    using strings for *;\n    function checkChallenge(string challenge) public pure returns(bool) {\n        var s = challenge.toSlice();\n        var delim = \".\".toSlice();\n        var parts = new string[](s.count(delim) + 1);\n        for(uint i = 0; i < parts.length; i++) {\n            parts[i] = s.split(delim).toString();\n        }\n        return (keccak256(parts[i]) == keccak256(\"dispute\"));//TODO: add RSAchecksig   \n    }\n}",
  "sourcePath": "/Users/vladimirpopov/Blockchain/P2Partner/contracts/leadUtils.sol",
  "compiler": {
    "name": "solc",
    "version": "0.4.21+commit.dfe3193c.Emscripten.clang"
  },
  "schemaVersion": "1.0.1",
  "updatedAt": "2018-04-01T10:06:50.418Z"
}