{
  "contractName": "p2p",
  "abi": [
    {
      "constant": true,
      "inputs": [
        {
          "name": "",
          "type": "uint256"
        },
        {
          "name": "",
          "type": "uint256"
        }
      ],
      "name": "payments",
      "outputs": [
        {
          "name": "amount",
          "type": "uint256"
        },
        {
          "name": "agentId",
          "type": "uint256"
        },
        {
          "name": "agentAdress",
          "type": "address"
        },
        {
          "name": "vendorId",
          "type": "uint256"
        },
        {
          "name": "client",
          "type": "address"
        },
        {
          "name": "agentWithraw",
          "type": "bool"
        },
        {
          "name": "vendorWithdraw",
          "type": "bool"
        }
      ],
      "payable": false,
      "stateMutability": "view",
      "type": "function"
    },
    {
      "constant": false,
      "inputs": [],
      "name": "registerAgent",
      "outputs": [
        {
          "name": "",
          "type": "uint256"
        }
      ],
      "payable": false,
      "stateMutability": "nonpayable",
      "type": "function"
    },
    {
      "constant": true,
      "inputs": [
        {
          "name": "",
          "type": "uint256"
        }
      ],
      "name": "agents",
      "outputs": [
        {
          "name": "id",
          "type": "uint256"
        },
        {
          "name": "owner",
          "type": "address"
        }
      ],
      "payable": false,
      "stateMutability": "view",
      "type": "function"
    },
    {
      "constant": true,
      "inputs": [
        {
          "name": "",
          "type": "uint256"
        }
      ],
      "name": "vendors",
      "outputs": [
        {
          "name": "id",
          "type": "uint256"
        },
        {
          "name": "owner",
          "type": "address"
        },
        {
          "name": "agentShare",
          "type": "uint256"
        }
      ],
      "payable": false,
      "stateMutability": "view",
      "type": "function"
    },
    {
      "constant": false,
      "inputs": [
        {
          "name": "vendorId",
          "type": "uint256"
        },
        {
          "name": "agentId",
          "type": "uint256"
        }
      ],
      "name": "pay",
      "outputs": [],
      "payable": true,
      "stateMutability": "payable",
      "type": "function"
    },
    {
      "constant": false,
      "inputs": [
        {
          "name": "agentShare",
          "type": "uint256"
        }
      ],
      "name": "createVendor",
      "outputs": [
        {
          "name": "",
          "type": "uint256"
        }
      ],
      "payable": false,
      "stateMutability": "nonpayable",
      "type": "function"
    }
  ],
  "bytecode": "0x6060604052341561000f57600080fd5b610ace8061001e6000396000f300606060405260043610610078576000357c0100000000000000000000000000000000000000000000000000000000900463ffffffff1680632655bd731461007d57806335eb520814610147578063513856c814610170578063a08d986d146101da578063ef48eee61461024b578063ffbf7ab91461026c575b600080fd5b341561008857600080fd5b6100a760048080359060200190919080359060200190919050506102a3565b604051808881526020018781526020018673ffffffffffffffffffffffffffffffffffffffff1673ffffffffffffffffffffffffffffffffffffffff1681526020018581526020018473ffffffffffffffffffffffffffffffffffffffff1673ffffffffffffffffffffffffffffffffffffffff168152602001831515151581526020018215151515815260200197505050505050505060405180910390f35b341561015257600080fd5b61015a61035b565b6040518082815260200191505060405180910390f35b341561017b57600080fd5b6101916004808035906020019091905050610420565b604051808381526020018273ffffffffffffffffffffffffffffffffffffffff1673ffffffffffffffffffffffffffffffffffffffff1681526020019250505060405180910390f35b34156101e557600080fd5b6101fb6004808035906020019091905050610473565b604051808481526020018373ffffffffffffffffffffffffffffffffffffffff1673ffffffffffffffffffffffffffffffffffffffff168152602001828152602001935050505060405180910390f35b61026a60048080359060200190919080359060200190919050506104cc565b005b341561027757600080fd5b61028d60048080359060200190919050506107e3565b6040518082815260200191505060405180910390f35b6000602052816000526040600020818154811015156102be57fe5b9060005260206000209060050201600091509150508060000154908060010154908060020160009054906101000a900473ffffffffffffffffffffffffffffffffffffffff16908060030154908060040160009054906101000a900473ffffffffffffffffffffffffffffffffffffffff16908060040160149054906101000a900460ff16908060040160159054906101000a900460ff16905087565b600060016004600082825401925050819055506003805480600101828161038291906108bb565b91600052602060002090600202016000604080519081016040528060045481526020013373ffffffffffffffffffffffffffffffffffffffff1681525090919091506000820151816000015560208201518160010160006101000a81548173ffffffffffffffffffffffffffffffffffffffff021916908373ffffffffffffffffffffffffffffffffffffffff160217905550505050600454905090565b60038181548110151561042f57fe5b90600052602060002090600202016000915090508060000154908060010160009054906101000a900473ffffffffffffffffffffffffffffffffffffffff16905082565b60018181548110151561048257fe5b90600052602060002090600302016000915090508060000154908060010160009054906101000a900473ffffffffffffffffffffffffffffffffffffffff16908060020154905083565b600080600084815260200190815260200160002080548060010182816104f291906108ed565b9160005260206000209060050201600060e06040519081016040528034815260200186815260200160038781548110151561052957fe5b906000526020600020906002020160010160009054906101000a900473ffffffffffffffffffffffffffffffffffffffff1673ffffffffffffffffffffffffffffffffffffffff1681526020018781526020013373ffffffffffffffffffffffffffffffffffffffff168152602001600015158152602001600015158152509091909150600082015181600001556020820151816001015560408201518160020160006101000a81548173ffffffffffffffffffffffffffffffffffffffff021916908373ffffffffffffffffffffffffffffffffffffffff1602179055506060820151816003015560808201518160040160006101000a81548173ffffffffffffffffffffffffffffffffffffffff021916908373ffffffffffffffffffffffffffffffffffffffff16021790555060a08201518160040160146101000a81548160ff02191690831515021790555060c08201518160040160156101000a81548160ff0219169083151502179055505050506064341115156106ab57600080fd5b6064346001858154811015156106bd57fe5b906000526020600020906003020160020154028115156106d957fe5b0490506003828154811015156106eb57fe5b906000526020600020906002020160010160009054906101000a900473ffffffffffffffffffffffffffffffffffffffff1673ffffffffffffffffffffffffffffffffffffffff166108fc829081150290604051600060405180830381858888f19350505050151561075c57600080fd5b60018381548110151561076b57fe5b906000526020600020906003020160010160009054906101000a900473ffffffffffffffffffffffffffffffffffffffff1673ffffffffffffffffffffffffffffffffffffffff166108fc8234039081150290604051600060405180830381858888f1935050505015156107de57600080fd5b505050565b600060016002600082825401925050819055506001805480600101828161080a919061091f565b9160005260206000209060030201600060606040519081016040528060025481526020013373ffffffffffffffffffffffffffffffffffffffff1681526020018681525090919091506000820151816000015560208201518160010160006101000a81548173ffffffffffffffffffffffffffffffffffffffff021916908373ffffffffffffffffffffffffffffffffffffffff160217905550604082015181600201555050506002549050919050565b8154818355818115116108e8576002028160020283600052602060002091820191016108e79190610951565b5b505050565b81548183558181151161091a57600502816005028360005260206000209182019101610919919061099f565b5b505050565b81548183558181151161094c5760030281600302836000526020600020918201910161094b9190610a4c565b5b505050565b61099c91905b80821115610998576000808201600090556001820160006101000a81549073ffffffffffffffffffffffffffffffffffffffff021916905550600201610957565b5090565b90565b610a4991905b80821115610a455760008082016000905560018201600090556002820160006101000a81549073ffffffffffffffffffffffffffffffffffffffff021916905560038201600090556004820160006101000a81549073ffffffffffffffffffffffffffffffffffffffff02191690556004820160146101000a81549060ff02191690556004820160156101000a81549060ff0219169055506005016109a5565b5090565b90565b610a9f91905b80821115610a9b576000808201600090556001820160006101000a81549073ffffffffffffffffffffffffffffffffffffffff0219169055600282016000905550600301610a52565b5090565b905600a165627a7a723058207297bf51374f426844126440cb4777eebdcf0a7ce384b4343045e68b78537f110029",
  "source": "pragma solidity ^ 0.4.18;\n\ncontract p2p {\n    struct Vendor {\n        uint id;\n        address owner;\n        uint agentShare;\n    }\n    struct Agent {\n        uint id;\n        address owner;\n    }\n    struct Payment {\n        uint amount;\n        uint agentId;\n        address agentAdress;\n        uint vendorId;\n        address client;\n        bool agentWithraw;\n        bool vendorWithdraw;\n    }\n    mapping (uint => Payment[]) public payments;\n    Vendor[] public vendors;\n    uint vendorCounter;\n    Agent[] public agents;\n    uint agentCounter;\n    function pay(uint vendorId, uint agentId ) public payable\n    {\n        payments[vendorId].push(Payment(msg.value,agentId,agents[agentId].owner,vendorId,msg.sender,false,false));\n        // ));\n        require(msg.value>100);\n        uint agentFee = vendors[vendorId].agentShare * msg.value/100;\n        agents[agentId].owner.transfer(agentFee);\n        vendors[vendorId].owner.transfer(msg.value - agentFee);\n    }\n    function createVendor(uint agentShare) public returns (uint){\n        vendorCounter += 1;\n        vendors.push(Vendor(vendorCounter,msg.sender,agentShare));\n        return vendorCounter;\n    }\n    function registerAgent() public returns (uint) {\n        agentCounter += 1;\n        agents.push(Agent(agentCounter,msg.sender));\n        return agentCounter;\n    }\n    // function withdraw(uint vendorId) public\n    // { \n    //     for (var index = 0; index < payments[vendorId].length; index++) {\n    //         if (!payments[vendorId][index].agentWithraw && payments[vendorId][index].agentAdress == msg.sender)\n    //         {\n\n    //         }\n    //     }\n    // }\n\n}",
  "sourcePath": "/Users/vladimirpopov/Blockchain/P2Partner/contracts/p2p.sol",
  "compiler": {
    "name": "solc",
    "version": "0.4.21+commit.dfe3193c.Emscripten.clang"
  },
  "schemaVersion": "1.0.1",
  "updatedAt": "2018-04-01T10:06:50.400Z"
}