{
  "contractName": "p2partner",
  "abi": [
    {
      "constant": false,
      "inputs": [],
      "name": "registerAgent",
      "outputs": [
        {
          "name": "",
          "type": "uint256"
        }
      ],
      "payable": false,
      "stateMutability": "nonpayable",
      "type": "function"
    },
    {
      "constant": true,
      "inputs": [
        {
          "name": "",
          "type": "uint256"
        }
      ],
      "name": "agents",
      "outputs": [
        {
          "name": "id",
          "type": "uint256"
        },
        {
          "name": "owner",
          "type": "address"
        }
      ],
      "payable": false,
      "stateMutability": "view",
      "type": "function"
    },
    {
      "constant": true,
      "inputs": [
        {
          "name": "",
          "type": "uint256"
        }
      ],
      "name": "vendors",
      "outputs": [
        {
          "name": "id",
          "type": "uint256"
        },
        {
          "name": "owner",
          "type": "address"
        },
        {
          "name": "agentShare",
          "type": "uint256"
        }
      ],
      "payable": false,
      "stateMutability": "view",
      "type": "function"
    },
    {
      "constant": false,
      "inputs": [
        {
          "name": "vendorId",
          "type": "uint256"
        },
        {
          "name": "agentId",
          "type": "uint256"
        }
      ],
      "name": "pay",
      "outputs": [],
      "payable": true,
      "stateMutability": "payable",
      "type": "function"
    },
    {
      "constant": false,
      "inputs": [
        {
          "name": "agentShare",
          "type": "uint256"
        }
      ],
      "name": "createVendor",
      "outputs": [
        {
          "name": "",
          "type": "uint256"
        }
      ],
      "payable": false,
      "stateMutability": "nonpayable",
      "type": "function"
    }
  ],
  "bytecode": "0x6060604052341561000f57600080fd5b6106b88061001e6000396000f30060606040526004361061006d576000357c0100000000000000000000000000000000000000000000000000000000900463ffffffff16806335eb520814610072578063513856c81461009b578063a08d986d14610105578063ef48eee614610176578063ffbf7ab914610197575b600080fd5b341561007d57600080fd5b6100856101ce565b6040518082815260200191505060405180910390f35b34156100a657600080fd5b6100bc6004808035906020019091905050610293565b604051808381526020018273ffffffffffffffffffffffffffffffffffffffff1673ffffffffffffffffffffffffffffffffffffffff1681526020019250505060405180910390f35b341561011057600080fd5b61012660048080359060200190919050506102e6565b604051808481526020018373ffffffffffffffffffffffffffffffffffffffff1673ffffffffffffffffffffffffffffffffffffffff168152602001828152602001935050505060405180910390f35b610195600480803590602001909190803590602001909190505061033f565b005b34156101a257600080fd5b6101b8600480803590602001909190505061041c565b6040518082815260200191505060405180910390f35b60006001600460008282540192505081905550600380548060010182816101f591906104f4565b91600052602060002090600202016000604080519081016040528060045481526020013373ffffffffffffffffffffffffffffffffffffffff1681525090919091506000820151816000015560208201518160010160006101000a81548173ffffffffffffffffffffffffffffffffffffffff021916908373ffffffffffffffffffffffffffffffffffffffff160217905550505050600454905090565b6003818154811015156102a257fe5b90600052602060002090600202016000915090508060000154908060010160009054906101000a900473ffffffffffffffffffffffffffffffffffffffff16905082565b6001818154811015156102f557fe5b90600052602060002090600302016000915090508060000154908060010160009054906101000a900473ffffffffffffffffffffffffffffffffffffffff16908060020154905083565b60008083815260200190815260200160002080548060010182816103639190610526565b916000526020600020906004020160006080604051908101604052803481526020018581526020018681526020013373ffffffffffffffffffffffffffffffffffffffff16815250909190915060008201518160000155602082015181600101556040820151816002015560608201518160030160006101000a81548173ffffffffffffffffffffffffffffffffffffffff021916908373ffffffffffffffffffffffffffffffffffffffff1602179055505050505050565b60006001600260008282540192505081905550600180548060010182816104439190610558565b9160005260206000209060030201600060606040519081016040528060025481526020013373ffffffffffffffffffffffffffffffffffffffff1681526020018681525090919091506000820151816000015560208201518160010160006101000a81548173ffffffffffffffffffffffffffffffffffffffff021916908373ffffffffffffffffffffffffffffffffffffffff160217905550604082015181600201555050506002549050919050565b81548183558181151161052157600202816002028360005260206000209182019101610520919061058a565b5b505050565b8154818355818115116105535760040281600402836000526020600020918201910161055291906105d8565b5b505050565b815481835581811511610585576003028160030283600052602060002091820191016105849190610636565b5b505050565b6105d591905b808211156105d1576000808201600090556001820160006101000a81549073ffffffffffffffffffffffffffffffffffffffff021916905550600201610590565b5090565b90565b61063391905b8082111561062f57600080820160009055600182016000905560028201600090556003820160006101000a81549073ffffffffffffffffffffffffffffffffffffffff0219169055506004016105de565b5090565b90565b61068991905b80821115610685576000808201600090556001820160006101000a81549073ffffffffffffffffffffffffffffffffffffffff021916905560028201600090555060030161063c565b5090565b905600a165627a7a723058209bfac3e5992e43f9ccf986d46cd02df1510c4094d963afcdf34015013dce66fa0029",
  "source": "pragma solidity ^ 0.4.18;\n\ncontract p2partner {\n    struct Vendor {\n        uint id;\n        address owner;\n        uint agentShare;\n    }\n    struct Agent {\n        uint id;\n        address owner;\n    }\n    struct Payment {\n        // uint id;\n        uint amount;\n        uint agentId;\n        uint vendorId;\n        address client;\n    }\n    mapping (uint => Payment[]) payments;\n    Vendor[] public vendors;\n    uint vendorCounter;\n    Agent[] public agents;\n    uint agentCounter;\n    function pay(uint vendorId, uint agentId ) public payable\n    {\n        // address vendor = vendors[vendorId].owner;\n        payments[vendorId].push(Payment(msg.value,agentId,vendorId,msg.sender));\n    }\n    function createVendor(uint agentShare) public returns (uint){\n        vendorCounter += 1;\n        vendors.push(Vendor(vendorCounter,msg.sender,agentShare));\n        return vendorCounter;\n    }\n    function registerAgent() public returns (uint) {\n        agentCounter += 1;\n        agents.push(Agent(agentCounter,msg.sender));\n        return agentCounter;\n    }\n}",
  "sourcePath": "/Users/vladimirpopov/Blockchain/P2Partner/contracts/p2p.sol",
  "compiler": {
    "name": "solc",
    "version": "0.4.21+commit.dfe3193c.Emscripten.clang"
  },
  "schemaVersion": "1.0.1",
  "updatedAt": "2018-03-31T12:32:45.416Z"
}